:100000000C9454050C94C4150C949D150C947C050B
:100010000C947C050C947C050C947C050C947C055C
:100020000C947C050C947C050C947C050C940A17AC
:100030000C947C050C947C050C947C050C947C053C
:100040000C9453150C947C050C9421150C94FB1402
:100050000C947C050C947C050C947C050C947C051C
:100060000C94EB150C947C0500000000003E5B4FE7
:100070005B3E3E6B4F6B3E1C3E7C3E1C183C7E3C08
:10008000181C577D571C1C5E7F5E1C00183C180016
:10009000FFE7C3E7FF0018241800FFE7DBE7FF30A6
:1000A000483A060E2629792926407F050507407F14
:1000B00005253F5A3CE73C5A7F3E1C1C08081C1C87
:1000C0003E7F14227F22145F5F005F5F06097F017D
:1000D0007F006689956A606060606094A2FFA29468
:1000E00008047E040810207E201008082A1C080836
:1000F0001C2A08081E101010100C1E0C1E0C303884
:100100003E3830060E3E0E06000000000000005F84
:1001100000000007000700147F147F14242A7F2AA0
:100120001223130864623649562050000807030062
:10013000001C2241000041221C002A1C7F1C2A08AE
:10014000083E080800807030000808080808000011
:1001500060600020100804023E5149453E00427F85
:10016000400072494949462141494D331814127FD4
:100170001027454545393C4A494931412111090774
:100180003649494936464949291E000014000000F5
:1001900040340000000814224114141414140041C7
:1001A00022140802015909063E415D594E7C121184
:1001B000127C7F494949363E414141227F414141BC
:1001C0003E7F494949417F090909013E4141517337
:1001D0007F0808087F00417F41002040413F017FA8
:1001E000081422417F404040407F021C027F7F0470
:1001F00008107F3E4141413E7F090909063E4151B9
:10020000215E7F09192946264949493203017F01A8
:10021000033F4040403F1F2040201F3F4038403FA9
:10022000631408146303047804036159494D4300BF
:100230007F4141410204081020004141417F0402F6
:10024000010204404040404000030708002054548D
:1002500078407F284444383844444428384444286B
:100260007F385454541800087E090218A4A49C78BE
:100270007F0804047800447D40002040403D007F1A
:100280001028440000417F40007C047804787C08FA
:100290000404783844444438FC18242418182424CE
:1002A00018FC7C08040408485454542404043F44B3
:1002B000243C4040207C1C2040201C3C4030403CE2
:1002C00044281028444C9090907C4464544C440042
:1002D00008364100000077000000413608000201A6
:1002E0000204023C2623263C1EA1A161123A404092
:1002F000207A38545455592155557941225454780F
:1003000042215554784020545579400C1E527212A7
:100310003955555559395454545939555454580030
:1003200000457C410002457D420001457C407D1234
:1003300011127DF0282528F07C5455450020545496
:100340007C547C0A097F4932494949323A44444441
:100350003A324A4848303A4141217A3A424020787C
:10036000009DA0A07D3D4242423D3D4040403D3C7D
:1003700024FF2424487E4943662B2FFC2F2BFF09A2
:1003800029F620C0887E0903205454794100004496
:100390007D413048484A32384040227A007A0A0A81
:1003A000727D0D19317D2629292F282629292926F4
:1003B00030484D4020380808080808080808382F39
:1003C00010C8ACBA2F102834FA00007B00000814C3
:1003D0002A142222142A14085500550055AA55AA99
:1003E00055AAFF55FF55FF000000FF00101010FF39
:1003F00000141414FF001010FF00FF1010F010F094
:10040000141414FC001414F700FF0000FF00FF1484
:1004100014F404FC141417101F10101F101F1414D0
:10042000141F00101010F0000000001F101010101A
:100430001F10101010F010000000FF10101010100E
:1004400010101010FF10000000FF140000FF00FF4C
:1004500000001F10170000FC04F4141417101714E8
:1004600014F404F40000FF00F7141414141414140A
:10047000F700F7141414171410101F101F1414147D
:10048000F4141010F010F000001F101F0000001FE7
:1004900014000000FC140000F010F01010FF10FF1A
:1004A000141414FF141010101F00000000F010FFAF
:1004B000FFFFFFFFF0F0F0F0F0FFFFFF0000000093
:1004C00000FFFF0F0F0F0F0F3844443844FC4A4A17
:1004D0004A347E02020606027E027E0263554941CC
:1004E000633844443C04407E201E2006027E020203
:1004F00099A5E7A5991C2A492A1C4C7201724C3017
:100500004A4D4D303048784830BC625A463D3E49ED
:100510004949007E0101017E2A2A2A2A2A44445F91
:10052000444440514A444040444A51400000FF0185
:1005300003E080FF000008086B6B08361236243693
:10054000060F090F060000181800000010100030F8
:1005500040FF0101001F01011E00191D1712003C80
:100560003C3C3C0000000000000103070F1F3F7FE0
:100570000080C0E0F0F8FCFE00000008000201006E
:10058000000304070000000000000000000000005D
:10059000240027002A00DB40A4A62EAF2000A1C81B
:1005A000D300408DAED580A80000000025002800B3
:1005B0002B000000600000000000000000000000B0
:1005C000000000E00000000000000000000000004B
:1005D0000001E0000000000000000000000000003A
:1005E00001F0000000000000000000000000000317
:1005F000F00000000000000000000000000007F014
:100600000000000000000000000000000007F800EB
:100610000000000000000000000000000FF80000D3
:100620000003C0007E000001E0007F0FF800000022
:1006300003C000FE000001E000FFEFF8000000032F
:10064000C000FE000001E000FFFFF800000003C052
:1006500000F00000000F007FFE7FC0000003C0001C
:10066000F00000000F003FFE7FF83FF1FBCFFCFEE3
:10067000F3BC3DEFE01FFE7FFF7FFBFFDFFEFEFFD1
:10068000BC3DEFE01FC6FFFF7FFBFFDFFEFEFFBCB0
:100690003DEFE00FE3C7FE787BC3DE1EF0FFBC3DFD
:1006A000EF0007FF87FC787BC3DE1EF0F83C3DEFD0
:1006B0000001FFFFF0007BC3C01EF0F03C3DEF00E7
:1006C00001F37FE03FFBC3CFFEF0F03C3DEF0003C2
:1006D000E33F807FFBC3DFFEF0F03C3DEF0007E728
:1006E0003C00787BC3DE1EF0F03C3DEF0007FFBE10
:1006F00000787BC3DE1EF0F03C3DEF0007FFFE00FC
:10070000787BC3DE1EF0F03C3DEF000FFFFE007F64
:10071000FBFFDFFEF0F03FFDEFE00FFFFF007FFB90
:10072000FFDFFEF0F03FFDEFE00FF9FF003E79F94B
:10073000CF9EF0F01F3DE7E01FF1FF00000000003A
:10074000000000000000001F80FF007FFFFFFFFF90
:10075000FFFFFFFFFFE01C007F007FFFFFFFFEB4F5
:100760006D888D18E000001F007FFFFFFFFE95AD34
:100770007DB577E000000F007FFFFFFFFEA5AD9D78
:100780008D19E0000006007FFFFFFFFEB5ADEDB55F
:100790007EE000000000000180000000000000007A
:1007A0000000038000000000000000000007C000FF
:1007B000000000000000000007C000000000000072
:1007C0000000000FC00000000000000000001FE05B
:1007D0000000000000000000001FE000000000001A
:1007E000000000003FE00000000000000000003FAB
:1007F000F00000000000000000007FF0000000009A
:100800000000001FF87FF0000000000000003FFE25
:100810007FF0000000000000003FFF7FF0000000BC
:10082000000000001FFFFBE0000000000000000FC0
:10083000FFF9FFC00000000000000FFFF9FFF80003
:10084000000000000007FFF1FFFF000000000000B3
:1008500003FC73FFFF80000000000001FE3FFFFF6C
:1008600080000000000000FF1E0FFF0000000000DD
:1008700000007FFE1FFC000000000000003FFFFFA3
:10088000F8000000000000000FDFFFE000000000A3
:100890000000001F19FFC0000000000000003F3CE6
:1008A000FF00000000000000007E7CF80000000057
:1008B000000000007FFE7C0000000000000000FF40
:1008C000FFFC0000000000000000FFFFFE00000031
:1008D0000000000000FFFFFE00000000000000011B
:1008E000FFEFFE0000000000000001FFCFFE00004F
:1008F000000000000003FF07FE00000000000000F1
:1009000003FC07FE0000000000000003F003FE00EF
:10091000000000000000018000FE00000000000058
:10092000000000007E000000000000000000003E0B
:10093000000000000000000000000C0000000000AB
:1009400000078000FC000003C0000000078001FCDD
:10095000000003C0000000078001FC000003C0008D
:100960000000078001E00000001E00000007800179
:10097000E00000001E007FE3F79FF9FDE7787BDFD2
:10098000C0FFF7FFBFFDFDFF787BDFC0FFF7FFBFB4
:10099000FDFDFF787BDFC0F0F787BC3DE1FF787B92
:1009A000DE00F0F787BC3DE1F0787BDE0000F787E2
:1009B000803DE1E0787BDE007FF7879FFDE1E07816
:1009C0007BDE00FFF787BFFDE1E0787BDE00F0F71C
:1009D00087BC3DE1E0787BDE00F0F787BC3DE1E0DD
:1009E000787BDE00F0F787BC3DE1E0787BDE00FF3E
:1009F000F7FFBFFDE1E07FFBDFC0FFF7FFBFFDE1D9
:100A0000E07FFBDFC07CF3F39F3DE1E03E7BCFC0A6
:100A10000000000000000000000000FFFFFFFFFFDB
:100A2000FFFFFFFFFFC0FFFFFFFFFD68DB111A3173
:100A3000C0FFFFFFFFFD2B5AFB6AEFC0FFFFFFFF68
:100A4000FD4B5B3B1A33C0FFFFFFFFFD6B5BDB6AB7
:100A5000FDC05353443133303620616C6C6F636199
:100A600074696F6E206661696C6564000000000047
:100A700023002600290004040404040404040202E0
:100A8000020202020303030303030102040810200D
:100A900040800102040810200102040810202200F6
:100AA000FF2100000B18591E11241FBECFEFD8E004
:100AB000DEBFCDBF11E0A0E0B1E0E4EEF3E402C0A0
:100AC00005900D92A837B107D9F723E0A8E7B1E068
:100AD00001C01D92AE35B207E1F715E0C3E5D5E0E0
:100AE00004C02197FE010E94AE20C235D107C9F78C
:100AF0000E94EE180C94E5210C940000089580915A
:100B0000390290913A02A0913B02B0913C020196C9
:100B1000A11DB11D8093390290933A02A0933B022C
:100B2000B0933C02089508950895AF92BF92CF927A
:100B3000DF92EF92FF920F931F93CF93DF936C019D
:100B40007B018B01040F151FEB015E01AE18BF087E
:100B5000C017D10759F06991D601ED91FC91019030
:100B6000F081E02DC6010995892B79F7C501DF9148
:100B7000CF911F910F91FF90EF90DF90CF90BF909A
:100B8000AF900895FC01538D448D252F30E0842FC4
:100B900090E0821B930B541710F0CF9608950197A5
:100BA0000895FC01918D828D981761F0A28DAE0F92
:100BB000BF2FB11D5D968C91928D9F5F9F73928F19
:100BC00090E008958FEF9FEF0895FC01918D828D45
:100BD000981731F0828DE80FF11D858D90E0089512
:100BE0008FEF9FEF0895FC01918D228D892F90E06A
:100BF000805C9F4F821B91098F739927089589E428
:100C000092E00E94F30521E0892B09F420E0822F75
:100C1000089580E090E0892B29F00E94FF05811162
:100C20000C9400000895FC01A48DA80FB92FB11DEC
:100C3000A35ABF4F2C91848D90E001968F73992712
:100C4000848FA689B7892C93A089B1898C918370F0
:100C500080648C93938D848D981306C00288F389E9
:100C6000E02D80818F7D80830895EF92FF920F9316
:100C70001F93CF93DF93EC0181E0888F9B8D8C8D48
:100C800098131AC0E889F989808185FF15C09FB73C
:100C9000F894EE89FF896083E889F98980818370FF
:100CA000806480839FBF81E090E0DF91CF911F91AE
:100CB0000F91FF90EF900895F62E0B8D10E00F5FCF
:100CC0001F4F0F731127E02E8C8D8E110CC00FB6A5
:100CD00007FCFACFE889F989808185FFF5CFCE013D
:100CE0000E941306F1CFEB8DEC0FFD2FF11DE35A9F
:100CF000FF4FF0829FB7F8940B8FEA89FB898081C0
:100D00008062CFCFCF93DF93EC01888D8823B9F039
:100D1000AA89BB89E889F9898C9185FD03C0808106
:100D200086FD0DC00FB607FCF7CF8C9185FFF2CF83
:100D3000808185FFEDCFCE010E941306E9CFDF91C0
:100D4000CF91089590E0FC01E858FA4F2491FC01FE
:100D5000E657F54F3491FC01EA58F54FE491EE2344
:100D6000C9F0222339F0233001F1A8F4213019F120
:100D7000223029F1F0E0EE0FFF1FE855FA4FA59160
:100D8000B4918FB7F894EC91611126C030953E2351
:100D90003C938FBF08952730A9F02830C9F0243044
:100DA00049F7809180008F7D03C0809180008F770C
:100DB00080938000DFCF84B58F7784BDDBCF84B58F
:100DC0008F7DFBCF8091B0008F778093B000D2CF22
:100DD0008091B0008F7DF9CF3E2BDACFCF93DF9398
:100DE00090E0FC01E657F54F24918A58954FFC019D
:100DF00084918823C9F090E0880F991FFC01E45783
:100E0000FA4FA591B491FC01E855FA4FC591D491E0
:100E100061110DC09FB7F8948C91209582238C931B
:100E20008881282328839FBFDF91CF910895623066
:100E300051F49FB7F8943C91822F809583238C9333
:100E4000E8812E2BEFCF8FB7F894EC912E2B2C93BB
:100E50008FBFEACF3FB7F89480912A0290912B027E
:100E6000A0912C02B0912D0226B5A89B05C02F3F62
:100E700019F00196A11DB11D3FBFBA2FA92F982FC0
:100E80008827BC01CD01620F711D811D911D42E0BB
:100E9000660F771F881F991F4A95D1F708958F9283
:100EA0009F92AF92BF92CF92DF92EF92FF924B014F
:100EB0005C010E942A076B017C010E942A076C19C1
:100EC0007D098E099F09683E734081059105A8F34D
:100ED00021E0821A9108A108B10888EEC80E83E0CB
:100EE000D81EE11CF11C81149104A104B10429F75E
:100EF000FF90EF90DF90CF90BF90AF909F908F903A
:100F000008950895EF92FF920F931F93CF93DF936D
:100F1000EC01EC80FD806E157F050CF070C057FF72
:100F200004C0240F351F50E040E08E819F81FA01FC
:100F3000E20FF31F8E179F071CF49C01241B350B37
:100F4000121613060CF05BC0922F842F869586959F
:100F500086958E9DD0018F9DB00D11246A0F7B1F49
:100F6000AF8DB8A1A60FB71F477049F188E0841B69
:100F7000482F682F70E0FB01E059FA4FE4912817E1
:100F800008F063C0621B71092FEF30E002C0359595
:100F900027956A95E2F7E2230130110539F0B0F1A7
:100FA0000230110561F58C91E82702C08C91E82B85
:100FB000EC93941720F12C813D81A20FB31FE92FF0
:100FC000E41BE83078F00230110521F58E2F9C915A
:100FD00090959C932C813D81A20FB31F885088303F
:100FE000B0F7E770EE2359F0F0E0E859FA4FE491DA
:100FF00001301105F9F010F10230110519F1DF91FE
:10100000CF911F910F91FF90EF900895E0958C91F3
:10101000E823CECF81E00115110509F480E0819528
:101020009E2F8C932C813D81A20FB31F9850983036
:10103000C0F7D7CF8C91E82BEC93E1CFE0958C9162
:10104000E823FACF8C91E827F7CF0130110509F496
:10105000ADCFE0F20230110509F4A5CFAE0DBF1DF2
:10106000AECF0F931F93CF93DF9377FF04C0260F6C
:10107000371F70E060E0DC011496CD91DC91FB013C
:10108000E20FF31FCE17DF071CF49E01261B370B60
:10109000121613064CF5FA0157FD3796A3E0F595A5
:1010A000E795AA95E1F7EC9FD001ED9FB00DFC9F6D
:1010B000B00D11246A0F7B1FDC015F96ED91FC914E
:1010C000E60FF71F4770552781E090E001C0880FB9
:1010D0004A95EAF7482F0130110559F0A8F02E0F74
:1010E0003F1F02301105E1F0DF91CF911F910F9169
:1010F00008952E0F3F1FE217F307B1F38191DF012F
:101100001197842B8C93F7CF80952E0F3F1FE217FA
:10111000F30751F39191DF01119798239C93F7CF37
:10112000E217F30709F38191DF01119784278C936C
:10113000F7CF0F931F93FA01DC0156964C91569707
:101140004230E9F04330A1F1413061F514964D9100
:101150005C91DA01AE1BBF0BFD01E21BF30B77FDC7
:101160000BC0DC0116964D915C916417750724F451
:10117000AB01BF010E9431081F910F910895149691
:101180004D915C91DA01A61BB70BBD01615071094D
:10119000DC0116964D915C91DA01AE1BBF0BFD018F
:1011A000E21BF30B77FDE8CFAF010E948207E4CF8B
:1011B00016964D915C91DA01A61BB70BBD016150EB
:1011C0007109CDCF0F931F93FA01DC0156964C9114
:1011D00056974230A9F0433091F1413019F51496F9
:1011E0004D915C91DA01AE1BBF0BFD013197F7FD0C
:1011F00004C0AB01BF010E9482071F910F910895A7
:1012000014964D915C91DA01A61BB70BBD01DC0170
:1012100016964D915C91DA01AE1BBF0BFD01319723
:10122000621B730BF7FDE9CFDC0116964D915C91C3
:10123000E417F50714F7AF010E943108DECF1696C8
:101240004D915C91DA01A61BB70BBD01621B730BBC
:10125000CECFFC0177FD64C0808591856817790742
:101260000CF05EC057FD5CC0828593854817590716
:101270000CF056C086898230B1F0833029F181307C
:1012800041F484819581841B950BAB01BC016150B5
:1012900071092130310509F108F443C022303105CC
:1012A00009F463C0089584819581DC01A61BB70B06
:1012B000BD016150710986819781DC01A41BB50BCA
:1012C000AD0141505109E5CF86819781861B970B6F
:1012D000BA01AC0141505109DCCFCA0157FD079654
:1012E000A3E095958795AA95E1F7A481B5818A9F9A
:1012F00090018B9F300D9A9F300D1124620F731F48
:10130000078CF0A1E02DE60FF71F4770552721E06D
:1013100030E001C0220F4A95EAF78081822B80835A
:101320000895CA0157FD079633E0959587953A953C
:10133000E1F7A481B5818A9F90018B9F300D9A9F20
:10134000300D1124620F731F078CF0A1E02DE60F02
:10135000F71F4770552781E090E001C0880F4A953C
:10136000EAF7809590818923DACFCA0157FD079665
:1013700023E0959587952A95E1F7A481B5818A9F09
:1013800090018B9F300D9A9F300D1124620F731FB7
:10139000078CF0A1E02DE60FF71F4770552721E0DD
:1013A00030E001C0220F4A95EAF780818227B7CF4B
:1013B00008958EBD00000DB407FEFDCF8EB50895D3
:1013C0008CBD9DBD08950895FC016370668B84817A
:1013D000958126813781613039F0633029F091871A
:1013E0008087338722870895318720879387828774
:1013F00008952F923F924F925F926F927F928F92B9
:101400009F92AF92BF92CF92DF92EF92FF920F9393
:101410001F93CF93DF93CDB7DEB76A970FB6F894DB
:10142000DEBF0FBECDBF9A8F898F7A8369834A0151
:10143000D22E18870F833701BC2CDC0159962D91D1
:101440003C915A972115310509F015C118968D91D7
:101450009C911997681779070CF0D7C11A968D914E
:101460009C91481759070CF0D0C14C2C512CB6E078
:10147000CB9E600D711D11247C876B871616170695
:101480000CF0C3C1EA2DF0E0FA87E98793E0EE0F94
:10149000FF1F9A95E1F7F88BEF87CF01840F951F17
:1014A000181619060CF0B1C1A98DBA8D58968C91F9
:1014B000811104C0BFEABD1508F4D394A98DBA8D7B
:1014C000ED91FC9111970284F385E02DCD010995F2
:1014D000B5E0DB9EC0011124E981FA81FC83EB8336
:1014E000312C212C9C0128593F4F388F2F8B4A2DAE
:1014F00050E05E8B4D8BEF89F88DE20DF31D44912A
:101500009E828D82D12CC12C69817A81620D731DDE
:101510007A8B698B842F90E09C8B8B8BE98DFA8D75
:10152000A081B18140FF82C0F1E0BF126FC0AF1255
:101530006DC01C96ED91FC912F813885A4014C0D56
:101540005D1D69897A89898D9A8D0995EB89FC8958
:10155000F595E7954E2F5FEFC51AD50A6D817E810F
:101560008D899E89680F791F7E836D8398E0C916E7
:10157000D10481F6AFEF2A1A3A0AEB81FC81E40D1F
:10158000F51DFC83EB83F5E02F16310409F0B3CF92
:101590002F81388526153705B9F0A98DBA8DED91C3
:1015A000FC91B1E0BB1257C0AB1255C069817A8182
:1015B0006B5F7F4F0088F189E02D830128E030E0E8
:1015C000A401898D9A8D0995A98DBA8DED91FC9113
:1015D00011970688F789E02DCD016A960FB6F89429
:1015E000DEBF0FBECDBFDF91CF911F910F91FF9056
:1015F000EF90DF90CF90BF90AF909F908F907F90B3
:101600006F905F904F903F902F9009941E96ED91B0
:10161000FC91EF80F88409851A8592014D815E81E5
:101620006B817C81898D9A8D099590CF2F8138852A
:101630002615370509F48ACF31E0B31207C0A3128B
:1016400005C01C96ED91FC91930178CF1E96ED910B
:10165000FC917301E0CF6B857C8564197509068464
:10166000F785E02D73010F8518899201A401898DFA
:101670009A8D0995A9CFF9013496949132974591A5
:101680005491D91AB7E0DB9E400D511D1124F90188
:10169000259134913C8B2B8BFA0125903490FA01E3
:1016A0003296749031963491398B3296649031969B
:1016B000449041E04C1518F04A1508F07FC0662DA3
:1016C000062C000C770B7C836B83842D042C000C80
:1016D000990B9E838D83A98DBA8DED91FC91119705
:1016E0000284F385E02DCD010995512CD12CC12C1C
:1016F000EA2DF0E0FA87E9872B2D30E03C872B8735
:10170000A401440D511D47FC5A95588F4F8B698198
:101710007A81660D711D67FC7A957E876D87798960
:10172000C71608F051CF2C2D30E04D815E81420F5D
:10173000531FA985BA854A9FC0014B9F900D5A9FA0
:10174000900D1124FC01E80DF91DF88BEF87852D14
:10175000612C4F89588D420F531F5E8B4D8B671440
:1017600008F050C044244394480E877041F4C101EE
:101770000196EB89FC89E20DF31DD4901C01D7FE84
:1017800019C0A98DBA8DED91FC91662D70E0B1E084
:10179000BB1219C0AB1217C02D853E85620F731F97
:1017A0000484F585E02D2F8138854D895E89898DEA
:1017B0009A8D0995DD0C6394842DD1CF1E821D82F4
:1017C0001C821B8288CF4B815C81640F751FAB85A7
:1017D000BC856A9FC0016B9F900D7A9F900D11246C
:1017E00069817A81680F791F0684F785E02DEF8083
:1017F000F88409851A859D014F855889898D9A8DB0
:101800000995D8CF570CC3948ACF6A960FB6F8942F
:10181000DEBF0FBECDBFDF91CF911F910F91FF9023
:10182000EF90DF90CF90BF90AF909F908F907F9080
:101830006F905F904F903F902F9008958F929F925E
:10184000AF92CF92EF92FF920F931F93CF93DF93BC
:10185000EC01262F898D9A8D009709F051C06A30CE
:10186000D1F41D861C868D8948E0849F9001112447
:101870008E859F85820F931F9F878E8781E090E0E2
:10188000DF91CF911F910F91FF90EF90CF90AF908C
:101890009F908F9008956D3089F3CC88AD888F89A3
:1018A0008823C1F08C859D8536E0C39E800D911DF7
:1018B0001124488559854817590764F44E855F857A
:1018C0001D861C8638E0A39EC0011124840F951F3D
:1018D0009F878E87EA88FB88088919894E855F85EE
:1018E0006C857D85CE010E94F9092C898C859D85AA
:1018F00046E0249F800D911D11249D878C87BECFCB
:101900006A3069F41D861C86FC013896E4912D89A5
:101910008E859F85E29F800D911D1124ADCF6D3086
:1019200009F4ACCFFC0134963491631708F4A6CFC8
:101930003296E491E61708F4A1CFFC013296859027
:101940009490462F431B342F47E0349F800C911C0A
:101950001124F401329634913196E4913323A9F1A4
:10196000EE2399F1CC88F4013596E491AD884F8946
:10197000442301F10E2E000CFF0BE30FF11DCE9E50
:10198000A001CF9E500D11246C857D85460F571FF9
:1019900068857985641775076CF44E855F851D86AB
:1019A0001C86FC013896E491AE9E400D511D112419
:1019B0005F874E87EA88FB88088919894E855F858D
:1019C0006C857D85CE010E94F909F4013496E4917D
:1019D0002C898C859D85E29F800D911D11248DCFD2
:1019E0006F927F928F929F92AF92BF92CF92DF922F
:1019F000EF92FF920F931F93CF93DF93EC016B0154
:101A00005A0139014801E881F9810284F385E02D0A
:101A10000995E881F9810288F389E02D8701930116
:101A2000A501B601CE010995A501480D591D4150EA
:101A30005109E881F9810288F389E02D9301B6010B
:101A4000CE010995E881F9810088F189E02D9401A2
:101A5000A501B601CE010995C60CD71CB60161508F
:101A60007109E881F9810088F189E02D9401A501CF
:101A7000CE010995E881F9810688F789E02DCE012C
:101A8000DF91CF911F910F91FF90EF90DF90CF905A
:101A9000BF90AF909F908F907F906F9009946F92BE
:101AA0007F928F929F92AF92BF92CF92DF92EF92EE
:101AB000FF920F931F93CF93DF935C01EB016A01B9
:101AC000490138018701DC01ED91FC916217730730
:101AD00019F5641675062CF0962D872D3A01C92E3E
:101AE000D82E9601261937092F5F3F4F048CF58DAC
:101AF000E02DA301BE01C5010995DF91CF911F9192
:101B00000F91FF90EF90DF90CF90BF90AF909F909C
:101B10008F907F906F9008954615570591F4261782
:101B2000370724F0892D4B01C22FD82F9E01281989
:101B300039092F5F3F4F068CF78DE02DA601B401C8
:101B4000DACF0284F385E02D0995D501ED91FC9162
:101B50000488F589E02D83019401A601BE01C50129
:101B60000995D501ED91FC910688F789E02DC50115
:101B7000DF91CF911F910F91FF90EF90DF90CF9069
:101B8000BF90AF909F908F907F906F900994EF924D
:101B9000FF920F931F93DC011A960D911C911B97D6
:101BA00018962D913C911997ED91FC9100A0F1A10F
:101BB000E02D7B0150E040E070E060E009951F916E
:101BC0000F91FF90EF9008954F925F926F927F92E6
:101BD0008F929F92AF92BF92CF92DF92EF92FF923D
:101BE0000F931F93CF93DF936C012B015A0139019F
:101BF0004801DC01ED91FC910284F385E02D09950B
:101C0000E201640C751CD601ED91FC91C615D70557
:101C10005CF40088F189E02D87019401A501BE01E3
:101C2000C60109952196EFCF0688F789E02DC601F8
:101C3000DF91CF911F910F91FF90EF90DF90CF90A8
:101C4000BF90AF909F908F907F906F905F904F90DC
:101C500009948F929F92AF92BF92CF92DF92EF92B0
:101C6000FF920F931F93CF93DF93EC015B014A0127
:101C70006901E881F9810284F385E02D09959501D8
:101C80002C0D3D1D21503109E881F9810488F58929
:101C9000E02D78018401A401B501CE010995E88108
:101CA000F9810688F789E02DCE01DF91CF911F9150
:101CB0000F91FF90EF90DF90CF90BF90AF909F90EB
:101CC0008F9009948F929F92AF92BF92CF92DF92A2
:101CD000EF92FF920F931F93CF93DF93EC015B0181
:101CE0004A0169017801E881F9810284F385E02DD8
:101CF0000995C80CD91C860101501109E881F981A8
:101D00000488F589E02D9501A401B501CE0109955E
:101D1000E881F9810688F789E02DCE01DF91CF9126
:101D20001F910F91FF90EF90DF90CF90BF90AF90F9
:101D30009F908F900994EF92FF920F931F93DC0175
:101D4000ED91FC9100A0F1A1E02D09951F910F915B
:101D5000FF90EF9008950F931F93DC01ED91FC919C
:101D6000068CF78DE02D09951F910F9108950F9323
:101D70001F93DC01ED91FC91048CF58DE02D09950C
:101D80001F910F910895DC01ED91FC910084F18584
:101D9000E02D09943F924F925F926F927F928F92C3
:101DA0009F92AF92BF92CF92DF92EF92FF920F93EA
:101DB0001F93CF93DF935C017B014A0169013901D5
:101DC00087E0680E711C93E0759467949A95E1F72B
:101DD0002B01400E511E10E000E0312CD0E0C0E09D
:101DE000CE0187709927330C892B59F4FE0183E0CB
:101DF000F595E7958A95E1F7E00FF11FE80DF91DDC
:101E0000349037FE0AC021E030E0A701B5016C0F25
:101E10007D1F8AE193E00E94C30E2196CC16DD0659
:101E2000F9F68FEFE81AF80A060D171DE414F50409
:101E3000A9F6DF91CF911F910F91FF90EF90DF9066
:101E4000CF90BF90AF909F908F907F906F905F905A
:101E50004F903F9008952F923F924F925F926F92D2
:101E60007F928F929F92AF92BF92CF92DF92EF922A
:101E7000FF920F931F93CF93DF9300D000D000D039
:101E8000CDB7DEB73C016A013E832D83FC82EB8235
:101E90005801A41AB50AB7FE03C0B194A194B108C1
:101EA0008D809E80861A970A97FE03C09194819434
:101EB00091088A149B045CF0902F812F0D811E8164
:101EC0009D838E839C2D8D2D6B01692F782F0C1592
:101ED0001D055CF09D818E817E836D83692F782F37
:101EE000902F812F8601C92ED82E1601201A310A73
:101EF0002B012D813E81421A530A57FE03C0519493
:101F000041945108710137FE03C03FEFE31AF30A11
:101F1000F594E7948D819E81861797075CF5A1E083
:101F2000B0E0BA83A983C016D1064CF1D301ED917C
:101F3000FC910484F585E02D2B813C81A8016D8105
:101F40007E818A149B041CF04D815E81B801C3011F
:101F50000995E418F508F7FE0AC02D813E818981B4
:101F60009A81280F391F3E832D83E20CF31C0F5FEB
:101F70001F4FD9CF2FEF3FEF3A832983D4CF269637
:101F80000FB6F894DEBF0FBECDBFDF91CF911F918A
:101F90000F91FF90EF90DF90CF90BF90AF909F9008
:101FA0008F907F906F905F904F903F902F9008950B
:101FB00008952091DF01260F3327331F2132310589
:101FC000ECF420910302FC0190E080E0243069F001
:101FD00082E00895A091DF012191AC0141545E4F50
:101FE000A40FB52FB11D2C930196861798F38091FD
:101FF000DF01680F6093DF0180E0089581E00895BC
:102000001092030281E0809305021092040261E0C5
:1020100082E10E94A20661E083E10E94A206E9EB50
:10202000F0E080818E7F808380818D7F808388E453
:102030008093B80085E48093BC000895CF93DF932C
:1020400091E09093BE018823B9F0C091B800D0917F
:10205000BA008091BC008A7B8093BC0060E082E182
:102060000E94A20660E083E10E94A2060E94001086
:10207000D093BA00C093B800DF91CF910895E0915A
:10208000340280913302E81730F4F0E0E756FE4F57
:10209000808190E008958FEF9FEF08959091340232
:1020A000809133022FEF3FEF981748F4E92FF0E0CB
:1020B000E756FE4F208130E09F5F90933402C901C4
:1020C00008958091330290913402891B990B0895F1
:1020D000CF92DF92EF92FF920F931F93CF93DF93F4
:1020E0007C01CB018A0120914802222389F0EB0177
:1020F0006B01C40ED51ECC15DD0569F06991D701C1
:10210000ED91FC910190F081E02DC7010995F3CF8D
:10211000642F0E94D90FC801DF91CF911F910F91B9
:10212000FF90EF90DF90CF900895CF93DF931F92B1
:10213000CDB7DEB76983209148022223F9F02091C0
:102140004502203258F021E030E0FC013383228345
:1021500090E080E00F90DF91CF910895809146024A
:10216000E82FF0E0E758FE4F998190838F5F8093CE
:1021700046028093450281E090E0ECCF61E0CE0121
:1021800001960E94D90FF7CFCF92DF92EF92FF9284
:102190000F931F93CF93DF93D091450281E0D1320B
:1021A00008F09CC0C09147020E942A076B017C0185
:1021B0008091030281116CC082E08093030281E070
:1021C000809305028FEF8093020210922702D09332
:1021D0002602A9E7B1E0E6E0F2E080E0D8138DC086
:1021E0001092280280912802CC0FC82BC09328029D
:1021F00080910402813009F084C0109204020E9490
:102200002A076B017C01809128028093BB0080919A
:10221000BA019091BB01A091BC01B091BD01892B85
:102220008A2B8B2BA1F00E942A070091BA011091F2
:10223000BB012091BC013091BD016C197D098E0953
:102240009F09061717072807390708F442C080912D
:10225000BC0083FDD8CF85EC8093BC000E942A0788
:102260006B017C0180910302823009F44CC08091A3
:1022700002028F3F09F469C080910202803209F4A2
:1022800066C080910202803309F463C084E026C0F6
:102290008091BA019091BB01A091BC01B091BD01A8
:1022A000892B8A2B8B2B09F483CF0E942A0700915C
:1022B000BA011091BB012091BC013091BD016C1994
:1022C0007D098E099F09061717072807390708F0A7
:1022D0006FCF8091B9010E941E1085E010924602D6
:1022E0001092450210924802DF91CF911F910F91F9
:1022F000FF90EF90DF90CF9008959D9191938F5F25
:102300006DCF85EEA9CF8091BA019091BB01A091CC
:10231000BC01B091BD01892B8A2B8B2B09F4A2CF74
:102320000E942A070091BA011091BB012091BC01C3
:102330003091BD016C197D098E099F090617170799
:102340002807390708F08ECFC4CF80E0C7CF82E0DE
:10235000C5CF83E0C3CFEF92FF920F931F93CF932C
:10236000DF937C01C62F809137039091380300974B
:1023700009F459C020913B0331E030934802209387
:1023800047021092460210924502DC01ED91FC9149
:102390000190F081E02D60E009958701EE24E3943F
:1023A000F12CD1E0C1508091370390913803CF3F99
:1023B00091F1B0E2EB16F104D8F00E94C4108091C4
:1023C00037039091380320913B03D0934802209328
:1023D00047021092460210924502DC01ED91FC91F9
:1023E0000190F081E02D60E00995EE24E394F12C5A
:1023F0008091370390913803F8016491DC01ED91ED
:10240000FC910190F081E02D0995BFEFEB1AFB0ADA
:102410000F5F1F4FC7CFDF91CF911F910F91FF909B
:10242000EF900C94C410E0914703F0914803908121
:1024300080914D038095892380838701C15008F4E2
:1024400038C0F80184912091350330913603232B55
:1024500029F00E94D9090F5F1F4FF0CF28E030E02C
:1024600040E8E0914303F091440390914B03582FCF
:102470005423D9F05081952B9083E0914503F0913E
:102480004603908150914C03952B9083E091450336
:10249000F0914603508190914C0390959523908341
:1024A000469521503109E9F6D6CF50819095952374
:1024B000E3CFDF91CF911F910F91FF90EF9008959F
:1024C0001F93CF93DF93EC018D8D9E8D009721F1AB
:1024D000162F29A131E03093480220934702109231
:1024E000460210924502DC01ED91FC910190F081D1
:1024F000E02D60E009958D8D9E8DDC01ED91FC91C4
:102500000190F081E02D612F09958D8D9E8DDF91D9
:10251000CF911F910C94C410ADA5BEA59C918BA921
:10252000809589238C938B8D9C8D892B31F0862F00
:10253000DF91CF911F910C94D90928E030E080E819
:10254000A9A5BAA599A9462F4823C1F04C91942B6F
:102550009C93ABA5BCA59C914AA9942B9C93ABA53D
:10256000BCA54C919AA9909594239C938695215053
:10257000310931F7DF91CF911F9108954C919095DA
:102580009423E6CFDF92EF92FF920F931F93CF93A6
:10259000DF938091370390913803892B09F498C019
:1025A00020914F03309150034091510350915203B9
:1025B00060E074E284EF90E00E94871E20513109B0
:1025C0004109510956954795379527952093B800AD
:1025D00065E08EE99AE00E94AB1160911E036150A4
:1025E0008AE193E00E946012209120033091210340
:1025F000C901079697FD079633E0959587953A951B
:10260000E1F720911E0330911F03829F8001839F79
:10261000100D929F100D1124C0913903D0913A03EF
:1026200080913703909138030C0F1D1F009709F418
:102630008FC020913B0331E0309348022093470242
:102640001092460210924502DC01ED91FC9101903E
:10265000F081E02D60E40995EE24E394F12CDD2473
:10266000D39480913703909138030C171D0709F418
:1026700046C0B0E2EB16F104D8F00E94C41080917D
:1026800037039091380320913B03D0924802209366
:1026900047021092460210924502DC01ED91FC9136
:1026A0000190F081E02D60E40995EE24E394F12C93
:1026B00080913703909138036991DC01ED91FC9191
:1026C0000190F081E02D0995BFEFEB1AFB0AC9CF0D
:1026D0008091350390913603892B31F08091580316
:1026E000909159030E94E009E0914903F0914A0357
:1026F000908180914E0380958923808369CF0E94C9
:10270000C4108091370390913803892B09F461C07C
:102710002091530330915403409155035091560337
:1027200060E074E284EF90E00E94871E205131093E
:102730004109510956954795379527952093B8003B
:10274000DF91CF911F910F91FF90EF90DF9008954F
:10275000E0914703F0914803808190914D03892BCC
:1027600080830C171D0769F2899120913503309100
:102770003603232B19F00E94D909F3CF28E030E06B
:1027800040E8E0914303F091440390914B03582FAC
:102790005423D9F05081952B9083E0914503F0911B
:1027A0004603908150914C03952B9083E091450313
:1027B000F0914603508190914C039095952390831E
:1027C000469521503109E9F6CCCF5081909595235B
:1027D000E3CFE0914903F0914A03808190914E0349
:1027E000892B8083ADCF1F93CF93DF93EC01162FFE
:1027F0008D8D9E8D892BB1F12DA93EA94FA958AD84
:1028000060E074E284EF90E00E94871E205131095D
:102810004109510956954795379527952093B8005A
:1028200066EA111167EACE010E9460128D8D9E8DBD
:10283000892B41F129AD3AAD4BAD5CAD60E074E25E
:1028400084EF90E00E94871E20513109410951090F
:1028500056954795379527952093B800DF91CF91EE
:102860001F9108958B8D9C8D892B21F08EAD9FAD8E
:102870000E94E009EFA5F8A990818CA98095892391
:102880008083CECFEFA5F8A980819CA9892B808376
:10289000E5CF90E080E0089520912003309121035E
:1028A000C901079697FD079623E0959587952A9588
:1028B000E1F720911E0330911F03829FA001839FA7
:1028C000500D929F500D112470E060E0809139030B
:1028D00090913A030C94DE210E94D921FB010190D2
:1028E0000020E9F73197AF01461B570BDC01ED9152
:1028F000FC910280F381E02D09948F929F92AF9218
:10290000BF920F931F93CF93DF93CDB7DEB7A197FD
:102910000FB6F894DEBF0FBECDBF19A2423008F447
:102920004AE08E010F5D1F4F842E912CB12CA12CFB
:10293000A50194010E94871EE62FB901CA01EA3061
:1029400004F5E05DD801EE938D01232B242B252B7C
:1029500079F790E080E0109729F0BD018AE193E0DB
:102960000E946E14A1960FB6F894DEBF0FBECDBFC5
:10297000DF91CF911F910F91BF90AF909F908F905B
:102980000895E95CDFCF85ED8093BC008091BA01AA
:102990009091BB01A091BC01B091BD010796A11D12
:1029A000B11D23E0B695A795979587952A95D1F700
:1029B0002091BC0024FD03C01092030208954091B1
:1029C000BA015091BB016091BC017091BD01452BD2
:1029D000462B472B69F30097A105B10541F025E38C
:1029E0002A95F1F700000197A109B109E1CF809183
:1029F000B9010C941E101F920F920FB60F92112462
:102A00002F933F934F935F936F937F938F939F93F6
:102A1000AF93BF93EF93FF9389E492E00E94130674
:102A2000FF91EF91BF91AF919F918F917F916F91A6
:102A30005F914F913F912F910F900FBE0F901F907C
:102A400018951F920F920FB60F9211242F938F9308
:102A50009F93EF93FF93E0915902F0915A02808186
:102A6000E0915F02F091600282FD1BC09081809135
:102A700062028F5F8F7320916302821741F0E091B1
:102A80006202F0E0E75BFD4F958F80936202FF9159
:102A9000EF919F918F912F910F900FBE0F901F90EC
:102AA00018958081F4CF1F920F920FB60F921124C8
:102AB0002F933F938F939F93AF93BF938091350252
:102AC00090913602A0913702B091380230912902DC
:102AD00023E0230F2D3758F50196A11DB11D20933A
:102AE00029028093350290933602A0933702B09367
:102AF000380280912A0290912B02A0912C02B09171
:102B00002D020196A11DB11D80932A0290932B02E4
:102B1000A0932C02B0932D02BF91AF919F918F9102
:102B20003F912F910F900FBE0F901F90189526E8A0
:102B3000230F0296A11DB11DD2CF1F920F920FB687
:102B40000F9211242F933F934F935F936F937F9333
:102B50008F939F93AF93BF93EF93FF93E091020105
:102B6000F09103010995FF91EF91BF91AF919F9172
:102B70008F917F916F915F914F913F912F910F9026
:102B80000FBE0F901F9018951F920F920FB60F92C5
:102B900011242F933F934F935F936F937F938F9362
:102BA0009F93AF93BF93EF93FF93E0910001F09158
:102BB00001010995FF91EF91BF91AF919F918F9185
:102BC0007F916F915F914F913F912F910F900FBE29
:102BD0000F901F9018951F920F920FB60F9211240D
:102BE0002F933F934F935F936F937F938F939F9315
:102BF000AF93BF93EF93FF938091B900887F8036A6
:102C000009F44AC0F0F5883209F4A7C018F58031FC
:102C100009F49BC0B8F4882309F4F9C0883009F49A
:102C200094C0FF91EF91BF91AF919F918F917F9150
:102C30006F915F914F913F912F910F900FBE0F9029
:102C40001F901895883109F488C0803251F780931D
:102C5000020214C0803409F49DC040F48033B9F3FB
:102C60008833F9F68093020285ECB0C0803509F410
:102C700085C0883509F496C0883499F60E94C3143B
:102C8000D0CF883909F48CC038F5883729F050F452
:102C9000883611F0803729F683E080930302109282
:102CA000010257C0883809F47BC0803919F0803898
:102CB00009F0B7CF80910102803208F071C0E09135
:102CC000010281E08E0F809301028091BB00F0E051
:102CD000EF51FE4F80833DC0803B39F0E0F4803AF5
:102CE00009F479C0883A09F09CCF84E0809303020C
:102CF0001092E0011092DF01E0913102F091320276
:102D000009958091DF0181110FC081E08093DF017F
:102D10001092BF0109C0803C09F4A6CF883C09F499
:102D2000A3CF883B09F07DCFE091E00181E08E0FD9
:102D30008093E001F0E0E154FE4F80818093BB007E
:102D40009091E0018091DF0129C080912802809359
:102D5000BB0085EC8093BC0064CF909127028091EA
:102D60002602981758F5E091270281E08E0F809394
:102D70002702F0E0EA5FFD4F8081E9CFE091270272
:102D800081E08E0F809327028091BB00F0E0EA5F24
:102D9000FD4F808390912702809126029817C8F2F8
:102DA00085E8D8CFE091270281E08E0F809327023B
:102DB0008091BB00F0E0EA5FFD4F808380910502C7
:102DC00081115CCF81E08093040284EA8093BC008F
:102DD0001092030226CF85EC8093BC001092030270
:102DE00080910102803230F4E0910102F0E0EF5175
:102DF000FE4F10826091010270E0E0912F02F0918D
:102E0000300281EE91E00995109201020ACF1092F2
:102E1000020234CF1F920F920FB60F9211242F93FC
:102E20003F934F935F936F937F938F939F93AF9352
:102E3000BF93CF93DF93EF93FF9380917801C0917D
:102E40000A03D0E087FF24C010928500109284000E
:102E5000809178018F5F8093780180917801082EAE
:102E6000000C990B8C179D0724F4809178018C300D
:102E7000C4F18091840090918500049680349C492F
:102E800008F47AC08091840090918500049676C001
:102E900080917801082E000C990B8C179D07C4F6C1
:102EA000E09178018E2FEE0F990BFC01EE0FFF1FC2
:102EB000E80FF91FEA51FD4F808186FFC9CFE091ED
:102EC00078018E2FEE0F990BFC01EE0FFF1FE80F1C
:102ED000F91FEA51FD4F808160E08F730E94A206C6
:102EE000B7CF2091840030918500E09178018E2F3A
:102EF000EE0F990BFC01EE0FFF1FE80FF91FEA51CF
:102F0000FD4F81819281820F931F9093890080935E
:102F10008800E09178018E2FEE0F990BFC01EE0FE7
:102F2000FF1FE80FF91FEA51FD4F808186FF11C096
:102F3000E09178018E2FEE0F990BFC01EE0FFF1F31
:102F4000E80FF91FEA51FD4F808161E08F730E9405
:102F5000A206FF91EF91DF91CF91BF91AF919F9129
:102F60008F917F916F915F914F913F912F910F9032
:102F70000FBE0F901F90189580E49CE990938900F4
:102F8000809388008FEF80937801E3CFCF92DF9218
:102F9000EF92FF920F931F93E82FF92F05C0015076
:102FA00011092109310961F1908196239417B9F330
:102FB00005C0015011092109310911F190819623B1
:102FC0009413F7CFC12CD12CE12CF12C0AC08FEF38
:102FD000C81AD80AE80AF80A0C151D052E053F057F
:102FE00079F080818623841791F36C2D7D2D8E2DB1
:102FF0009F2D1F910F91FF90EF90DF90CF9008953C
:1030000060E070E080E090E01F910F91FF90EF9002
:10301000DF90CF90089510924C0210924B0288EEF0
:1030200093E0A0E0B0E080934D0290934E02A09315
:103030004F02B09350022EE031E030934A022093C9
:10304000490225EC30E0309356022093550224ECDF
:1030500030E0309358022093570220EC30E0309358
:103060005A022093590221EC30E030935C02209305
:103070005B0222EC30E030935E0220935D0226EC8E
:1030800030E03093600220935F021092620210924F
:103090006302109264021092650210921103109262
:1030A00010038093120390931303A0931403B0931F
:1030B000150380E291E090930F0380930E0310922A
:1030C0001D0310921C0320E830E030931F0320936F
:1030D0001E0380E490E090932103809320033093BB
:1030E00023032093220390932503809324031092BB
:1030F0003003109227031092260310922903109296
:10310000280381E080932F0380932E032FEF3FEF5E
:1031100030932D0320932C0330932B0320932A0309
:1031200080933103109232031092340310923303D0
:1031300082E391E090931B0380931A03109236036D
:10314000109235038EE093E0909338038093370319
:1031500010923A03109239039FEF90933E0390939D
:103160003F0390934003909341039093420340E8C0
:103170005AE166E070E040934F0350935003609330
:1031800051037093520340EA56E861E070E04093C7
:10319000530350935403609355037093560380E593
:1031A000809358031092590380910A038C3098F44D
:1031B00091E0980F90930A0380930B0390E0FC0139
:1031C000EE0FFF1FE80FF91FEA51FD4F88EB9BE060
:1031D00092838183089590930B030895789484B526
:1031E000826084BD84B5816084BD85B5826085BD03
:1031F00085B5816085BD80916E00816080936E0091
:103200001092810080918100826080938100809182
:103210008100816080938100809180008160809333
:1032200080008091B10084608093B1008091B000F3
:1032300081608093B00080917A00846080937A00EE
:1032400080917A00826080937A0080917A00816018
:1032500080937A0080917A00806880937A0010923F
:10326000C100E0915902F0915A0282E08083E0911E
:103270005502F09156021082E0915702F0915802E7
:103280008FEC808310926102E0915D02F0915E020A
:1032900086E08083E0915B02F0915C028081806136
:1032A0008083E0915B02F0915C0280818860808382
:1032B000E0915B02F0915C02808180688083E09104
:1032C0005B02F0915C0280818F7D808361E085E00C
:1032D0000E94EE0661E08EE00E94EE0661E08FE063
:1032E0000E94EE0661E086E00E94EE0661E080E169
:1032F0000E94EE0661E081E10E94EE0661E088E056
:103300000E94EE0660E084E00E94EE0662E083E048
:103310000E94EE0662E082E00E94EE062FE735E0B2
:103320003093030120930201809169008C608093A7
:103330006900E99A309301012093000180916900AE
:10334000836080936900E89A2FB7F89480913502E2
:1033500090913602A0913702B09138022FBF80932E
:103360003D0290933E02A0933F02B09340028091B1
:10337000390390913A03892B11F10E944C1420914A
:1033800020033091210380911E0390911F0321326D
:1033900031050CF04AC0B9016052710977FF02C0D3
:1033A0006F5F7F4F759567958357910997FD0196DC
:1033B00000E210E023E730E042EB55E049C0209105
:1033C000200330912103C901079697FD0796B3E0CA
:1033D00095958795BA95E1F720911E0330911F03CB
:1033E0008C01029FC001039F900D129F900D11242C
:1033F0000E94B42090933A0380933903892B09F0FB
:10340000BCCFC2E5DAE0FE016491662339F089E4BD
:1034100092E00E9435062196892BA9F76AE571E0B2
:1034200089E492E00E946E14FFCFB90160547109E3
:1034300077FF02C06F5F7F4F759567958255910941
:1034400097FD019600E410E022E530E042E957E004
:10345000959587950E94CA0E82E080933C038091E7
:10346000370390913803892B09F4B6C28CE380931B
:103470003B031092340210923302109246021092D3
:1034800045020E94001083E995E0909332028093F8
:10349000310284E995E09093300280932F0280916D
:1034A000420387FD1EC061E00E94EE0661E080914C
:1034B00042030E94A20661E070E080E090E00E947A
:1034C0004F0760E0809142030E94A2066AE070E02C
:1034D00080E090E00E944F0761E0809142030E94EB
:1034E000A2068091370390913803892B09F433C3E6
:1034F00020914F033091500340915103509152035A
:1035000060E074E284EF90E00E94871E2051310950
:103510004109510956954795379527952093B8004D
:1035200064E084EA95E00E94AB1160912003615051
:103530008AE193E00E94601264E080EA95E00E94D4
:10354000AB1180913C0364E1813009F460E18AE1D0
:1035500093E00E94601264E08CE995E00E94AB1158
:103560008FE88093570380911E0390911F0380384A
:10357000910509F009C380912003909121038034C3
:10358000910509F011C380913C03813009F4FAC21E
:103590008FEC80935703C2E16AED8AE193E00E94C9
:1035A00060126C2F8AE193E00E94601261E88AE168
:1035B00093E00E946012609157038AE193E00E94B9
:1035C000601269ED8AE193E00E94601280913C03F1
:1035D00061EF813009F462E28AE193E00E946012B7
:1035E00066E086E995E00E94AB11809137039091E7
:1035F0003803892B09F4DCC2209153033091540322
:10360000409155035091560360E074E284EF90E0DE
:103610000E94871E2051310941095109569547954D
:10362000379527952093B80060ED77E080E090E033
:103630000E944F070E944C1481E080932E038093D8
:103640002F0381E090E090932D0380932C039093BF
:103650002B0380932A0310922703109226038AE0FB
:1036600090E090932903809328030E94C2128091D6
:103670000B038C3008F051C061E089E00E94EE0637
:1036800080910B03282F30E0F901EE0FFF1FE20FAE
:10369000F31FEA51FD4F9081907C996090831092C6
:1036A0000C0310920D032CE0622F0E947A20829F5F
:1036B000B001112430E020E0AB01420F531FFA01AA
:1036C000EE0FFF1FE40FF51FEA51FD4F908196FDAD
:1036D00016C02F5F3F4F2C30310571F781110FC09D
:1036E0001092800082E080938100109285001092F9
:1036F0008400B19A80916F00826080936F00E091A6
:103700000B038E2F90E0FC01EE0FFF1FE80FF91F57
:10371000EA51FD4F80818064808393E0292E312C13
:10372000C1E0D0E026E0822E912CA12CB12C6DE5D9
:1037300071E08AE193E00E946E146AE571E08AE12B
:1037400093E00E946E14C0904102D0904202E0903B
:103750004302F0904402A7019601C701B6010E94FE
:10376000752063E671E081111BC026013701E894E2
:1037700077F82FEF3FEF4FE75FE7C301B2010E94F9
:10378000752081111FC22FEF3FEF4FE75FE7C301A5
:10379000B2010E94161F18160CF014C267E671E001
:1037A0008AE193E00E946E146AE571E08AE193E099
:1037B0000E946E1460E088E00E94A206C101019799
:1037C000F1F761E088E00E94A20683E290E00197B1
:1037D000F1F760E088E00E94A206EEE8FAE064916A
:1037E000EAE7FAE08491E82FF0E0EE0FFF1FE459DA
:1037F000F54F8591949100E412E42FE030E0462FDC
:103800000E94C617611571058105910529F06F5F4A
:103810007F4F8F4F9F4F9F700E94531F26E933E4C5
:103820004BE05DE30E94082020E030E040E05FE3F1
:103830000E9408200E941B1F6B01770FEE08FF08F3
:103840004AE0C701B601F7FE0DC06DE28AE193E0E0
:103850000E941E0C66277727CB016C197D098E0903
:103860009F094AE00E947D146AE571E08AE193E0D5
:103870000E946E146FE671E08AE193E00E946E147C
:103880006AE571E08AE193E00E946E140E94C21220
:1038900064E170E080E090E00E944F070E944C14C9
:1038A00081E080932E0380932F03D0932D03C09348
:1038B0002C03D0932B03C0932A0305E010E0109350
:1038C0002703009326032AE030E030932903209356
:1038D00028030E94C21261E08EE00E94A20660E00E
:1038E0008FE00E94A20660E080E10E94A20661E0F3
:1038F00081E10E94A20661E085E00E94EE0661E09F
:1039000085E00E94A20661E086E00E94EE0661E08A
:1039100086E00E94A2062FB7F8948091350290911C
:103920003602A0913702B09138022FBF40913D027C
:1039300050913E0260913F02709140028C019D01C6
:10394000041B150B260B370BB901A801493E534048
:1039500061057105A4F180933D0290933E02A0930E
:103960003F02B09340026091390270913A02809117
:103970003B0290913C02A50194010E94681ECA017D
:10398000B9010E94531F0E941B1FCB01B1010E946D
:103990008620072E000C880B990B0E94531F609302
:1039A000410270934202809343029093440210922A
:1039B000390210923A0210923B0210923C0220E02F
:1039C00030E0232B09F4B3CE0E94FF05882309F4CD
:1039D000AECE0E940000ABCE61E0809140030E9419
:1039E000EE0661E0809141030E94EE068091400363
:1039F000082E000C990BFC01EA58F54FE491F0E019
:103A0000EE0FFF1FE855FA4F25913491309348038C
:103A100020934703FC01E657F54FE491E0934D03F3
:103A200080914103082E000C990BFC01EA58F54FD8
:103A3000E491F0E0EE0FFF1FE855FA4FA591B49125
:103A4000B0934A03A0934903FC01E657F54FE49174
:103A5000E0934E038C91E82BEC9380913503909189
:103A60003603892B09F434C0CFB7F89480912E0225
:103A7000811127C0E0E8FAE08491E4E9FAE094914A
:103A8000E82FF0E0EE0FFF1FE457FA4FA591B49135
:103A9000EC91E92321F461E08AE00E94A20661E052
:103AA0008AE00E94EE068CB580618CBD8CB5806486
:103AB0008CBD61E08DE00E94EE0661E08BE00E942B
:103AC000EE0680912E028F5F80932E02CFBFE7CC4F
:103AD00061E080913E030E94EE0661E080913F0329
:103AE0000E94EE0680913E03082E000C990BFC010B
:103AF000EA58F54FE491F0E0EE0FFF1FE855FA4F5A
:103B0000259134913093440320934303FC01E657FD
:103B1000F54FE491E0934B0380913F03082E000C96
:103B2000990BFC01EA58F54FE491F0E0EE0FFF1F0E
:103B3000E855FA4FA591B491B0934603A09345037D
:103B4000FC01E657F54FE491E0934C038C91E0952E
:103B5000E823EC93A4CC8091350390913603892B14
:103B600031F080915803909159030E94E009E0914F
:103B70004903F0914A03908180914E0380958923F7
:103B80008083CECC8FE905CD8036910569F4809194
:103B9000200390912103409739F480913C038130B8
:103BA00029F08FEA80935703C2E0F6CC80E1FACF88
:103BB000E0914903F0914A03808190914E03892B53
:103BC000808332CD2FEF3FEF4FE75FE4C701B601AF
:103BD0000E94032018161CF46BE671E0E1CD2FEF74
:103BE0003FEF4FE75FECC701B6010E94161F87FD4C
:103BF000F3CF20E030E0A901C701B6010E94161FF3
:103C000087FF09C06DE28AE193E00E941E0CF7FA7B
:103C1000F094F7F8F0942AE037ED43EA5BE3C7014C
:103C2000B6010E94AA1E2B013C010E94221F6B01BB
:103C30007C010E94511F9B01AC01C301B2010E9493
:103C4000A91E2B013C014AE0C701B6010E947D1468
:103C50006EE28AE193E00E941E0C20E030E040E238
:103C600051E4C301B2010E9408202B013C010E94D3
:103C7000221F6B01F12CE12C4AE0C701B6010E9422
:103C80007D14C701B6010E94511F9B01AC01C30105
:103C9000B2010E94A91E20E030E040E251E40E94FF
:103CA00008200E94221F90E080E04AE00E947D14DC
:103CB0007BCD82E391E090931B0380931A03809164
:103CC000390390913A03009711F00C945021089514
:103CD000052E97FB1EF400940E947F1E57FD07D00F
:103CE0000E94871E07FC03D04EF40C947F1E509553
:103CF0004095309521953F4F4F4F5F4F08959095D8
:103D00008095709561957F4F8F4F9F4F0895A1E2E9
:103D10001A2EAA1BBB1BFD010DC0AA1FBB1FEE1F45
:103D2000FF1FA217B307E407F50720F0A21BB30B90
:103D3000E40BF50B661F771F881F991F1A9469F70C
:103D400060957095809590959B01AC01BD01CF0168
:103D500008955058BB27AA270E94C11E0C94C91F62
:103D60000E94BB1F38F00E94C21F20F039F49F3F11
:103D700019F426F40C94B81F0EF4E095E7FB0C94AC
:103D8000B21FE92F0E94DA1F58F3BA1762077307B0
:103D90008407950720F079F4A6F50C94FC1F0EF427
:103DA000E0950B2EBA2FA02D0B01B90190010C014B
:103DB000CA01A0011124FF27591B99F0593F50F463
:103DC000503E68F11A16F040A22F232F342F4427BB
:103DD000585FF3CF469537952795A795F0405395B3
:103DE000C9F77EF41F16BA0B620B730B840BBAF083
:103DF0009150A1F0FF0FBB1F661F771F881FC2F7EE
:103E00000EC0BA0F621F731F841F48F48795779501
:103E10006795B795F7959E3F08F0B0CF9395880FBB
:103E200008F09927EE0F9795879508950E948E1FA9
:103E300008F481E008950E94221F6894B1110C9447
:103E4000FD1F08950E94E21F88F09F5798F0B92F38
:103E50009927B751B0F0E1F0660F771F881F991FBF
:103E60001AF0BA95C9F714C0B13091F00E94FC1F46
:103E7000B1E008950C94FC1F672F782F8827B85F56
:103E800039F0B93FCCF3869577956795B395D9F717
:103E90003EF490958095709561957F4F8F4F9F4F21
:103EA0000895E89409C097FB3EF49095809570952D
:103EB00061957F4F8F4F9F4F9923A9F0F92F96E976
:103EC000BB279395F695879577956795B795F111EB
:103ED000F8CFFAF4BB0F11F460FF1BC06F5F7F4F88
:103EE0008F4F9F4F16C0882311F096E911C077239A
:103EF00021F09EE8872F762F05C0662371F096E8A3
:103F0000862F70E060E02AF09A95660F771F881F71
:103F1000DAF7880F9695879597F90895990F000815
:103F2000550FAA0BE0E8FEEF16161706E807F9078B
:103F3000C0F012161306E407F50798F0621B730B26
:103F4000840B950B39F40A2661F0232B242B252BA7
:103F500021F408950A2609F4A140A6958FEF811D4A
:103F6000811D089597F99F6780E870E060E00895EB
:103F70009FEF80EC089500240A9416161706180681
:103F80000906089500240A9412161306140605065D
:103F90000895092E0394000C11F4882352F0BB0FEE
:103FA00040F4BF2B11F460FF04C06F5F7F4F8F4F51
:103FB0009F4F089557FD9058440F551F59F05F3F8C
:103FC00071F04795880F97FB991F61F09F3F79F03B
:103FD00087950895121613061406551FF2CF4695BD
:103FE000F1DF08C0161617061806991FF1CF86953F
:103FF0007105610508940895E894BB276627772723
:10400000CB0197F908950E948E1F08F48FEF089551
:104010000E941B200C94C91F0E94BB1F38F00E94F5
:10402000C21F20F0952311F00C94B21F0C94B81FFE
:1040300011240C94FD1F0E94DA1F70F3959FC1F3A9
:10404000950F50E0551F629FF001729FBB27F00D46
:10405000B11D639FAA27F00DB11DAA1F649F66279B
:10406000B00DA11D661F829F2227B00DA11D621FEA
:10407000739FB00DA11D621F839FA00D611D221FA4
:10408000749F3327A00D611D231F849F600D211D88
:10409000822F762F6A2F11249F5750409AF0F1F00B
:1040A00088234AF0EE0FFF1FBB1F661F771F881F74
:1040B00091505040A9F79E3F510580F00C94B21FDB
:1040C0000C94FD1F5F3FE4F3983ED4F386957795FB
:1040D0006795B795F795E7959F5FC1F7FE2B880F1A
:1040E000911D9695879597F908950E948E1F880BCC
:1040F000990B0895991B79E004C0991F961708F051
:10410000961B881F7A95C9F78095089597FB072E0F
:1041100016F4009407D077FD09D00E949A2007FC7E
:1041200005D03EF4909581959F4F089570956195C7
:104130007F4F0895AA1BBB1B51E107C0AA1FBB1FDD
:10414000A617B70710F0A61BB70B881F991F5A9523
:10415000A9F780959095BC01CD010895EE0FFF1F42
:104160000590F491E02D09940F931F93CF93DF9363
:104170008230910510F482E090E0E0915C03F091D0
:104180005D0330E020E0B0E0A0E0309799F4211525
:10419000310509F44AC0281B390B24303105D8F504
:1041A0008A819B816115710589F1FB01938382836B
:1041B000FE0111C0408151810281138148175907C6
:1041C000E0F04817590799F4109761F012960C9394
:1041D000129713961C933296CF01DF91CF911F91C6
:1041E0000F91089500935C0310935D03F4CF2115A4
:1041F000310551F04217530738F0A901DB019A014C
:10420000BD01DF01F801C1CFEF01F9CF90935D034C
:1042100080935C03CDCFFE01E20FF31F8193919356
:104220002250310939832883D7CF20915A03309106
:104230005B03232B41F42091060130910701309359
:104240005B0320935A03209104013091050121154D
:10425000310541F42DB73EB7409108015091090155
:10426000241B350BE0915A03F0915B03E217F3072F
:10427000A0F42E1B3F0B2817390778F0AC014E5FD6
:104280005F4F2417350748F04E0F5F1F50935B03B5
:1042900040935A03819391939FCFF0E0E0E09CCF4D
:1042A000CF93DF930097E9F0FC01329713821282DB
:1042B000A0915C03B0915D03ED0130E020E0109728
:1042C000A1F420813181820F931F20915A033091F4
:1042D0005B032817390709F061C0F0935B03E09393
:1042E0005A03DF91CF910895EA01CE17DF07E8F571
:1042F0004A815B819E0141155105B1F7E901FB83BC
:10430000EA8349915991C40FD51FEC17FD0761F459
:10431000808191810296840F951FE901998388839A
:10432000828193819B838A83F0E0E0E012968D91F5
:104330009C9113970097B9F52D913C911197CD0160
:104340000296820F931F20915A0330915B03281726
:10435000390739F6309751F510925D0310925C03DE
:10436000B0935B03A0935A03BCCFD383C283408135
:104370005181840F951FC817D90761F44E5F5F4FB5
:1043800088819981480F591F518340838A819B817D
:10439000938382832115310509F0B0CFF0935D033B
:1043A000E0935C039ECFFD01DC01C0CF138212823B
:1043B000D7CF81E090E0F8940C94E521DC0101C0B6
:1043C0006D9341505040E0F7089515E0C3E5D5E006
:1043D00004C0FE010E94AE202196C435D107C9F762
:0443E000F894FFCF7F
:1043E4008107810700005E0380000000000035069D
:1043F4009505C2058206F305D105E5050000000018
:104404009510681049147E0561104E103F1000008D
:1044140000001E0C95054914D80F29097E05C30E0A
:104424009B0EB70EAB0E2B0F7E05E409F313990810
:10443400E208E40DC70D4F0DF00C0D0A0053706532
:104444006564006E616E00696E66006F7666004D8D
:084454006574657265730000D8
:00000001FF
